:100000000C942A000C9447000C9447000C94470071
:100010000C9447000C9447000C9447000C94470044
:100020000C9447000C9447000C9447000C94740205
:100030000C9447000C9447000C9447000C94470024
:100040000C9447000C9447000C9447000C94470014
:100050000C94470011241FBECFE5D8E0DEBFCDBF12
:1000600010E0A0E6B0E0E8E5F6E002C005900D92F1
:10007000AA36B107D9F720E0AAE6B0E001C01D9288
:10008000A837B207E1F70E940D030C942A030C94E1
:100090000000CF92DF92EF92FF920F931F93CF93C6
:1000A000DF93E5E071E16894FF24F4F86FE00EE07F
:1000B0005DE01CE04BE0DAE039E0C8E027E00F2E1D
:1000C000F6E0DF2EF02D6894CC24C2F893E0F2E045
:1000D00080916000813009F580916E008F3FD1F0F2
:1000E00080916B00863918F48F5F80936B0080914C
:1000F0006A00823818F48F5F80936A00AFE8B3E338
:100100001197F1F700C0000080916E008F5F80931F
:100110006E0003C0F093600004C0809160008230E4
:1001200051F580916800882309F18150809368001F
:1001300080916B008F3F19F08F5F80936B008091EF
:100140006A008A3A18F48E5F80936A0080916A0090
:10015000B6E5B80FB53518F48F5F80936A00AFE845
:10016000BAE11197F1F700C0000005C0909360005C
:100170008091680008C0809160008330C1F4809154
:1001800068008F3F89F08F5F80936800853628F084
:1001900080916700815080936700AFE8BAE11197C2
:1001A000F1F700C0000003C0C092600004C080915D
:1001B0006000843099F480916700882351F0815069
:1001C00080936700AFE8BAE11197F1F700C0000033
:1001D00005C0E09360008091670008C080916000D6
:1001E0008530C1F4809167008F3F89F08F5F8093E5
:1001F0006700853628F08091660081508093660004
:10020000AFE8BAE11197F1F700C0000003C0D09247
:10021000600004C080916000863099F4809166008F
:10022000882351F0815080936600AFE8BAE11197BE
:10023000F1F700C0000005C02093600080916600C7
:1002400008C0809160008730C1F4809166008F3FC4
:1002500089F08F5F80936600853628F08091650075
:10026000815080936500AFE8BAE11197F1F700C0C3
:10027000000003C0C093600004C08091600088301B
:1002800099F480916500882351F081508093650036
:10029000AFE8BAE11197F1F700C0000005C0309354
:1002A00060008091650008C0809160008930C1F4D1
:1002B000809165008F3F89F08F5F80936500853660
:1002C00028F080916400815080936400AFE8BAE127
:1002D0001197F1F700C0000003C0D093600004C084
:1002E000809160008A3099F480916400882351F0F5
:1002F000815080936400AFE8BAE11197F1F700C034
:10030000000005C0409360008091640008C08091A7
:1003100060008B30C1F4809164008F3F89F08F5F63
:1003200080936400853628F080916300815080932B
:100330006300AFE8BAE11197F1F700C0000003C015
:100340001093600004C0809160008C3099F480911B
:100350006300882351F0815080936300AFE8BAE1D5
:100360001197F1F700C0000005C050936000809124
:10037000630008C0809160008D30C1F480916300FB
:100380008F3F89F08F5F80936300853628F08091DE
:100390006200815080936200AFE8BAE11197F1F7F3
:1003A00000C0000003C00093600004C080916000A2
:1003B0008E3099F480916200882351F081508093AF
:1003C0006200AFE8BAE11197F1F700C0000005C084
:1003D000609360008091620008C0809160008F305F
:1003E000C1F4809162008F3F89F08F5F809362003B
:1003F000853628F080916100815080936100AFE8DC
:10040000BAE11197F1F700C0000003C0F09260005C
:1004100004C080916000803199F48091610088234C
:1004200051F0815080936100AFE8BAE11197F1F784
:1004300000C0000005C0709360008091610008C09A
:10044000809160008131E9F4809161008F3FA9F0D3
:100450008F5F80936100B0916A00B33838F08E37B7
:1004600028F0EE24EA94EB0EE0926A00AFE8BAE1DD
:100470001197F1F700C0000004C082E18093600092
:1004800005C080916000823109F022CE80916B001E
:10049000882389F0815080936B0080916A008823C3
:1004A00019F0815080936A008FE893E30197F1F788
:1004B00000C0000008CE81E08093600010926E00C2
:1004C000DF91CF911F910F91FF90EF90DF90CF9030
:1004D00008958EEF8ABB1BBA8CE381BB82B388611F
:1004E00082BBA798AF9A08951F920F920FB60F92F2
:1004F00011248F939F93809175008F5F8093750077
:1005000081112AC0809168008093730080916700F8
:10051000809374008091660080936C0080916500E8
:1005200080936D00809164008093770080916300D8
:1005300080937100809162008093760080916100C9
:1005400080936F0080916A008093720080916B00AD
:10055000809370001BBA12BA80917300909175005D
:10056000891303C08F3F09F0D99A8091740090914C
:100570007500891303C08F3F09F0DA9A80916C00EF
:1005800090917500891303C08F3F09F0DB9A809129
:100590006D0090917500891303C08F3F09F0DC9ABC
:1005A0008091770090917500891303C08F3F09F007
:1005B000DD9A8091710090917500891303C08F3F7F
:1005C00009F0DE9A8091760090917500891303C03E
:1005D0008F3F09F0DF9A80916F0090917500891329
:1005E00003C08F3F09F0929A80917200909175003C
:1005F000891303C08F3F09F0939A80917000909106
:100600007500891303C08F3F09F0949A9F918F91D1
:100610000F900FBE0F901F9018950E94690289B726
:100620008E7F89BF83B7816083BF78949F9B08C00A
:1006300089B7816089BF0E94490089B78E7F89BFD1
:100640002FEF84E39CE0215080409040E1F700C010
:080650000000ECCFF894FFCF8D
:0A06580001FFFFFFFFFFFFFFFF009F
:00000001FF
