:100000000C942A000C9447000C9447000C94470071
:100010000C9447000C9447000C9447000C94470044
:100020000C9447000C9447000C9447000C94D302A6
:100030000C9447000C9447000C9447000C94470024
:100040000C9447000C9447000C9447000C94470014
:100050000C94470011241FBECFE5D8E0DEBFCDBF12
:1000600010E0A0E6B0E0E0EBF7E002C005900D92F2
:10007000AC36B107D9F720E0ACE6B0E001C01D9284
:10008000AD37B207E1F70E94AD030C94D6030C9490
:10009000000080916000813009F5809170008F3FF1
:1000A000D1F080916D00863918F48F5F80936D00D8
:1000B00080916C00823818F48F5F80936C008FE819
:1000C00093E30197F1F700C00000809170008F5F0B
:1000D0008093700003C082E0809360008091600094
:1000E000823041F580916B00882309F18150809323
:1000F0006B0080916D008F3F19F08F5F80936D00D2
:1001000080916C008A3A18F48E5F80936C00809125
:100110006C0096E5980F953518F48F5F80936C000E
:100120008FE39FE10197F1F700C0000003C083E077
:1001300080936000809160008330E9F480916B00CF
:100140008F3FB1F08F5F80936B00853650F08091C8
:100150006A00815080936A00809162008150809390
:1001600062008FE39FE10197F1F700C0000003C038
:1001700084E080936000809160008430B1F48091CD
:100180006A00882379F0815080936A008091620030
:100190008150809362008FE39FE10197F1F700C0E7
:1001A000000003C085E0809360008091600085308E
:1001B000C1F480916A008F3F89F08F5F80936A005D
:1001C000853628F0809169008150809369008FE81E
:1001D0009AE10197F1F700C0000003C086E0809328
:1001E000600080916000863089F4809169008823E6
:1001F00051F08150809369008FE39FE10197F1F7FF
:1002000000C0000003C087E0809360008091600020
:100210008730E9F4809169008F3FB1F08F5F809360
:100220006900909162009F5F90936200853628F08C
:10023000809168008150809368008FE39FE101976F
:10024000F1F700C0000003C088E080936000809157
:100250006000883089F480916800882351F08150D3
:10026000809368008FE39FE10197F1F700C00000E1
:1002700003C089E080936000809160008930E9F4D8
:10028000809168008F3FB1F085B38F7785BB8091F7
:1002900068008F5F80936800853628F08091610048
:1002A0008150809361008FE097E20197F1F700C0E1
:1002B000000003C08AE080936000809160008A3073
:1002C00089F480916100882351F08150809361000E
:1002D0008FE097E20197F1F700C0000003C08BE0C8
:1002E00080936000809160008B30C1F48091610048
:1002F0008F3F89F08F5F80936100853628F0809171
:1003000063008150809363008FE097E20197F1F7DB
:1003100000C0000003C08CE080936000809160000A
:100320008C30D1F480916300882351F08150809308
:1003300063008FE097E20197F1F700C000000CC066
:100340008DE0809360009FEF2BE782E99150204081
:100350008040E1F700C00000809160008D30E9F43A
:10036000809163008F3FB1F085B3806885BB809139
:1003700063008F5F80936300853628F0809167006B
:1003800081508093670087E293E20197F1F700C004
:10039000000003C08EE080936000809160008E308A
:1003A00089F480916700882351F081508093670021
:1003B0008FE39FE10197F1F700C0000003C08FE0D9
:1003C00080936000809160008F30E9F48091670035
:1003D0008F3FB1F08F5F8093670080916600853614
:1003E00040F081508093660080916200815080933C
:1003F00062008FE39FE10197F1F700C0000003C0A6
:1004000080E180936000809160008031B1F4809140
:100410006600882379F081508093660080916200A5
:100420008150809362008FE39FE10197F1F700C054
:10043000000003C081E18093600080916000813101
:10044000E9F4809166008F3FB1F08F5F8093660082
:10045000809162008F5F8093620080916500853695
:1004600018F08150809365008FE89AE10197F1F7C9
:1004700000C0000003C082E18093600080916000B2
:10048000823189F480916500882351F081508093F6
:1004900065008FE39FE10197F1F700C0000003C002
:1004A00083E180936000809160008331C1F480918A
:1004B00065008F3F89F08F5F8093650080916400B5
:1004C000853618F08150809364008FE39FE1019797
:1004D000F1F700C0000003C084E1809360008091C8
:1004E0006000843189F480916400882351F0815048
:1004F000809364008FE39FE10197F1F700C0000053
:1005000003C085E180936000809160008531D1F463
:10051000809164008F3F99F08F5F80936400909189
:100520006C00933828F08E3718F0915090936C003F
:100530008FE39FE10197F1F700C0000003C086E15F
:100540008093600080916000863109F0A2CD809197
:100550006D00882389F0815080936D0080916C003C
:10056000882319F0815080936C008FE893E3019702
:10057000F1F700C000008DCD81E080936000109203
:10058000700008958FEF8ABB1BBA81BB82B3846170
:1005900082BB84B38F7B84BB84B3806884BB85B308
:1005A000806485BB08951F920F920FB60F9211249D
:1005B0008F939F93809178008F5F80937800811153
:1005C00036C080916B008093760080916A008093A2
:1005D00077008091690080936E008091680080931D
:1005E0006F008091670080937C008091660080930B
:1005F00073008091650080937A00809164008093FD
:1006000071008091630080937900809162008093F3
:10061000750080916C008093740080916D008093D0
:1006200072008091610080937B001BBA12BA8091A6
:10063000760090917800891305C08F3F19F082B33E
:10064000826082BB8091770090917800891305C009
:100650008F3F19F082B3886082BB80916E009091C9
:100660007800891305C08F3F19F08BB380628BBB74
:1006700080916F0090917800891305C08F3F19F029
:100680008BB380618BBB80917C0090917800891343
:1006900005C08F3F19F08BB382608BBB80917300D4
:1006A00090917800891305C08F3F19F08BB3846057
:1006B0008BBB80917A0090917800891305C08F3FA1
:1006C00019F08BB388608BBB80917100909178009A
:1006D000891305C08F3F19F08BB381608BBB80916C
:1006E000790090917800891305C08F3F19F082B38B
:1006F000816082BB8091750090917800891305C05C
:100700008F3F19F082B3806282BB80917400909118
:100710007800891305C08F3F19F082B3846082BBD3
:100720008091720090917800891305C08F3F19F075
:1007300082B3806182BB80917B00909178008913A5
:1007400005C08F3F19F08BB380688BBB9F918F9151
:100750000F900FBE0F901F9018950E94C20289B78C
:100760008E7F89BF83B7816083BF789485B38068AB
:1007700085BB2FEF89E698E1215080409040E1F75A
:1007800000C000009E9908C089B7816089BF0E949F
:10079000490089B78E7F89BF2FEF84E39CE0215009
:1007A00080409040E1F700C00000ECCFF894FFCF0C
:0C07B00001FFFFFFFFFFFFFFFFFFFFFF47
:00000001FF
