:100000000C942A000C9447000C9447000C94470071
:100010000C9447000C9447000C9447000C94470044
:100020000C9447000C9447000C9447000C94DF029A
:100030000C9447000C9447000C9447000C94470024
:100040000C9447000C9447000C9447000C94470014
:100050000C94470011241FBECFE5D8E0DEBFCDBF12
:1000600010E0A0E6B0E0E0EBF7E002C005900D92F2
:10007000AC36B107D9F720E0ACE6B0E001C01D9284
:10008000AD37B207E1F70E94B9030C94D6030C9484
:10009000000080916000813009F5809172008F3FEF
:1000A000D1F080916D00863918F48F5F80936D00D8
:1000B00080916C00823818F48F5F80936C008FE819
:1000C00093E30197F1F700C00000809172008F5F09
:1000D0008093720003C082E0809360008091600092
:1000E000823041F580916B00882309F18150809323
:1000F0006B0080916D008F3F19F08F5F80936D00D2
:1001000080916C008A3A18F48E5F80936C00809125
:100110006C0096E5980F953518F48F5F80936C000E
:100120008FE89AE10197F1F700C0000003C083E077
:1001300080936000809160008330C1F480916B00F7
:100140008F3F89F08F5F80936B00853628F0809118
:100150006A00815080936A008FE89AE10197F1F775
:1001600000C0000003C084E08093600080916000C4
:10017000843089F480916A00882351F08150809303
:100180006A008FE89AE10197F1F700C0000003C010
:1001900085E080936000809160008530C1F480919B
:1001A0006A008F3F89F08F5F80936A00853628F060
:1001B000809169008150809369008FE89AE10197EE
:1001C000F1F700C0000003C086E0809360008091DA
:1001D0006000863089F480916900882351F0815055
:1001E000809369008FE89AE10197F1F700C0000061
:1001F00003C087E080936000809160008730C1F485
:10020000809169008F3F89F08F5F80936900853608
:1002100028F0809168008150809368008FE89AE10F
:100220000197F1F700C0000003C088E080936000F0
:1002300080916000883089F480916800882351F0B3
:100240008150809368008FE89AE10197F1F700C030
:10025000000003C089E080936000809160008930D5
:10026000C1F4809168008F3F89F08F5F80936800B0
:10027000853628F0809167008150809367008FE871
:100280009AE10197F1F700C0000003C08AE0809373
:100290006000809160008A3089F480916700882333
:1002A00051F08150809367008FE89AE10197F1F750
:1002B00000C0000003C08BE080936000809160006C
:1002C0008B30C1F4809167008F3F89F08F5F8093FE
:1002D0006700853628F0809161008150809361002D
:1002E0008FE89AE10197F1F700C0000003C08CE0AD
:1002F00080936000809160008C30D1F48091610027
:10030000882351F08150809361008FE89AE1019732
:10031000F1F700C000000CC08DE0809360009FEFFB
:1003200027EA81E6915020408040E1F700C00000BC
:10033000809160008D30C1F4809161008F3F89F021
:100340008F5F80936100853628F080916600815030
:10035000809366008FE89AE10197F1F700C00000F2
:1003600003C08EE080936000809160008E3089F43D
:1003700080916600882351F08150809366008FE859
:100380009AE10197F1F700C0000003C08FE080936D
:100390006000809160008F30C1F4809166008F3FD3
:1003A00089F08F5F80936600853628F08091650024
:1003B0008150809365008FE89AE10197F1F700C0C2
:1003C000000003C080E18093600080916000803174
:1003D00089F480916500882351F0815080936500F5
:1003E0008FE89AE10197F1F700C0000003C081E1B6
:1003F00080936000809160008131C1F4809165003C
:100400008F3F89F08F5F80936500853628F080915B
:1004100064008150809364008FE89AE10197F1F7BE
:1004200000C0000003C082E1809360008091600002
:10043000823189F480916400882351F08150809347
:1004400064008FE89AE10197F1F700C0000003C053
:1004500083E180936000809160008331C1F48091DA
:1004600064008F3F89F08F5F80936400853628F0A9
:10047000809163008150809363008FE89AE1019737
:10048000F1F700C0000003C084E180936000809118
:100490006000843189F480916300882351F0815099
:1004A000809363008FE89AE10197F1F700C00000A4
:1004B00003C085E180936000809160008531C1F4C4
:1004C000809163008F3F89F08F5F80936300853652
:1004D00028F0809162008150809362008FE89AE159
:1004E0000197F1F700C0000003C086E1809360002F
:1004F00080916000863189F480916200882351F0F8
:100500008150809362008FE89AE10197F1F700C073
:10051000000003C087E18093600080916000873114
:10052000D1F4809162008F3F99F08F5F80936200D9
:1005300090916C00933828F08E3718F0915090937A
:100540006C008FE89AE10197F1F700C0000003C04A
:1005500088E18093600080916000883109F099CD36
:1005600080916D00882389F0815080936D00809187
:100570006C00882319F0815080936C008FE893E31E
:100580000197F1F700C0000084CD81E08093600006
:100590001092720008958FEF8ABB1BBA81BB82B3A1
:1005A000886182BB84B38F7B84BB84B38F7784BB29
:1005B00085B3806485BB85B3806885BB08951F9231
:1005C0000F920FB60F9211248F939F938091790011
:1005D0008F5F80937900811136C080916B0080938A
:1005E000770080916A008093780080916900809301
:1005F0006F00809168008093710080916700809304
:100600007C008091660080937500809165008093E6
:100610007A008091640080937300809163008093DE
:1006200070008091620080936E0080916C008093D6
:10063000760080916D0080937400809161008093BA
:100640007B001BBA12BA80917700909179008913D0
:1006500005C08F3F19F08BB381608BBB8091780010
:1006600090917900891305C08F3F19F08BB3826098
:100670008BBB80916F0090917900891305C08F3FEB
:1006800019F08BB384608BBB8091710090917900DD
:10069000891305C08F3F19F08BB388608BBB8091A5
:1006A0007C0090917900891305C08F3F19F08BB3BE
:1006B00080618BBB8091750090917900891305C092
:1006C0008F3F19F08BB380628BBB80917A00909141
:1006D0007900891305C08F3F19F08BB380648BBB01
:1006E0008091730090917900891305C08F3F19F0B4
:1006F0008BB380688BBB80917000909179008913D7
:1007000005C08F3F19F082B3816082BB80916E007B
:1007100090917900891305C08F3F19F082B38260F0
:1007200082BB8091760090917900891305C08F3F3C
:1007300019F082B3846082BB80917400909179003B
:10074000891305C08F3F19F082B3886082BB809106
:100750007B0090917900891305C08F3F19F082B317
:10076000806182BB9F918F910F900FBE0F901F9061
:1007700018950E94CB0289B78E7F89BF83B78160AD
:1007800083BF78949F9B08C089B7816089BF0E940E
:10079000490089B78E7F89BF2FEF84E39CE0215009
:1007A00080409040E1F700C00000ECCFF894FFCF0C
:0C07B00001FFFFFFFFFFFFFFFFFFFFFF47
:00000001FF
