:100000000C942A000C9434000C9434000C943400AA
:100010000C9434000C9434000C9434000C94340090
:100020000C9434000C9434000C9434000C94340080
:100030000C9434000C9434000C9434000C94340070
:100040000C9434000C9434000C9434000C94340060
:100050000C94340011241FBECFE5D8E0DEBFCDBF25
:100060000E943F000C9463000C94000083E081BB6D
:1000700082B3886782BB84B38F7784BB08950E9464
:1000800036009F9B10C0859907C082B3816082BBF8
:1000900082B3826082BBF5CF82B3816082BB82B3C0
:1000A0008D7F82BBEECF869907C082B3816082BB11
:1000B00082B3826082BBE5CF82B38E7F82BB82B384
:0A00C000826082BBDECFF894FFCF10
:00000001FF
